:020000040020DA
:100000009847002015102000F90F2000051020004F
:100010000D1020000D1020000D1020000000000029
:100020000000000000000000000000000D10200093
:100030000D102000000000000D1020000D10200009
:100040000D1020000D1020000D1020000D102000BC
:10005000000000000D1020000D1020000D102000E9
:100060000D10200000000000000000000000000053
:1000700000000000000000000D1020000000000043
:1000800000000000000000000D1020000D102000F6
:100090000D1020000D1020000D1020000D1020006C
:1000A0000D1020000D1020000D1020000D1020005C
:1000B0000D1020000D1020000D1020000D1020004C
:1000C0000D1020000D1020000D1020000D1020003C
:1000D0000D102000000000000000000000000000E3
:1000E0000000000000000000000000000000000010
:1000F0000D102000000000000D1020000D10200049
:1001000000000000000000000000000000000000EF
:1001100000000000000000000000000000000000DF
:1001200000000000000000000000000000000000CF
:1001300000000000000000000000000000000000BF
:1001400000000000000000000000000000000000AF
:10015000000000000000000000000000000000009F
:10016000000000000000000000000000000000008F
:10017000000000000000000000000000000000007F
:10018000000000000000000000000000000000006F
:10019000000000000000000000000000000000005F
:1001A000000000000000000000000000000000004F
:1001B000000000000000000000000000000000003F
:1001C000000000000000000000000000000000002F
:1001D000000000000000000000000000000000001F
:1001E000000000000000000000000000000000000F
:1001F00000000000000000000000000000000000FF
:1002000000000000000000000000000000000000EE
:1002100000000000000000000000000000000000DE
:1002200000000000000000000000000000000000CE
:1002300000000000000000000000000000000000BE
:1002400000000000000000000000000000000000AE
:10025000000000000000000000000000000000009E
:10026000000000000000000000000000000000008E
:100270000D1020000D1020000D1020000D1020008A
:100280000D1020000D1020000D10200080B485B04E
:1002900000AF78600B467B8013467B707B68FB6009
:1002A0007B780B33DAB2FB681A70164B1B685B79EC
:1002B000002B02D048F6610301E048F641037B8140
:1002C0007B89DAB2FB685A707B891B0A9BB2DAB26F
:1002D000FB689A700C4B1A78FB68DA70094B1B6844
:1002E0005A88FB689A80FB687A88DA80054B1B681D
:1002F0001A88FB681A810A2318461437BD465DF830
:10030000047B70471C4400201444002080B584B056
:1003100000AF03463960FB8013467B71FA887B7916
:10032000104811461A46FFF7B1FF0346BB7300237E
:10033000FB730BE0BA7BFB7B1344FA7B39680A44FE
:100340001178084AD154FB7B0133FB73FA7B7B792C
:100350009A42EFD3BA7B7B791344DBB2184610374D
:10036000BD4680BD2044002080B582B000AF484B20
:100370007B6000F03DFB00F04BF97B6818460121E3
:1003800000F0E2FA7B681B7803F07F03DAB27B6847
:100390001A707B681B78052B24D17B681B783D483D
:1003A000194600F0D1FA7B685B7803F02003002B3C
:1003B00014BF01230023DBB21A46374B1A73374BA5
:1003C0003B603B6801331B78DBB25BB2002B57DA32
:1003D0007B68DA78324B1B789A4251D1304B01223C
:1003E0005A704DE07B681B780B3BDBB2DAB22A4BCC
:1003F0009A717B681B782748194600F0A5FA7B683C
:100400005B7803F02003002B14BF01230023DBB231
:100410001A46214B1A737B681A891F4B5A801E4B50
:10042000204A9A601C4B9A681B4B9B795BB2134421
:100430003B603B681B78DAB2174B5A733B68013359
:100440001B78DBB25BB2002B13DA134B1A787B6894
:10045000DB789A420DD07B685B7803F0DF03412B99
:1004600003D10D4B01229A7306E00B4B00229A73C5
:1004700002E0094B00229A737B68DA78064B1A7007
:1004800000F0CCF800F0C2FA0837BD4680BD00BFCE
:10049000944400209544002000440020984400200B
:1004A000144400209E44002080B582B000AF7860E4
:1004B00000F0BAF80346012B01D1012325E000F03A
:1004C000ADF8144A7B681360134B00229A60134BFB
:1004D00001229A70114B00225A600E4B1B681B7947
:1004E000184600F0EDF80B4B1B681B88184600F00F
:1004F000FDF8084B1B685B88184600F00FF90848A8
:1005000000F092FA00F084F8002318460837BD4640
:1005100080BD00BF1C440020004400201444002083
:100520006903200080B586B000AF03463960FB80C8
:1005300013467B710023FB602C4B9B78002B01D171
:1005400000F03AFA7B79672B28BF67237B7100F0B4
:1005500079FA00F04DFAFA887B79104639681A4624
:10056000FFF7D4FE0346BB75BB7D2148194600F05A
:10057000C1F900F04BFA00F003FA0346002B01D05A
:100580000123FB751B4B1B685B79002B18D0174BA5
:1005900000225A70184B3B6105E0FB680133FB6099
:1005A0003B69013B3B613B69002BF6D10F4B5B780C
:1005B000DBB2002B0CBF01230023DBB2FB7501E093
:1005C0000023FB75094B9B78002B01D100F002FA48
:1005D000FB7D002B05D1054B1B780133DAB2034BB1
:1005E0001A70FB7D18461837BD4680BD14440020A4
:1005F000204400201C440020400D030080B500AFC3
:10060000024B00229A7000F0E5F980BD14440020EE
:1006100080B400AFBD465DF8047B704780B400AF86
:10062000BD465DF8047B704780B500AF194B0122D1
:100630001A60194A184B1B6843F060031360174B8C
:100640000D221A60164B15221A60164B5A221A6098
:10065000154B09221A6004230B221A60134B002247
:100660001A60134B08221A60124B01221A60124BB7
:100670001B78002B01D000F0F5F99D20002100F03F
:100680005FFB9D200D4900F029FB00F0BFF900231E
:10069000184680BDA8200D402486084000860840EA
:1006A000C8860840B0860840E88708402886084089
:1006B000E4860840B886084018450020C50A200096
:1006C00080B483B000AF0346FB710749FB79A3F107
:1006D0000B0213469B0013440B330B600C37BD46D3
:1006E0005DF8047B704700BF3C86084080B483B04F
:1006F00000AF0346FB80074AFB88DBB21360064A63
:10070000FB881B0A9BB2DBB213600C37BD465DF859
:10071000047B7047D0850840D485084080B483B0FE
:1007200000AF0346FB80074AFB88DBB21360064A32
:10073000FB881B0A9BB2DBB213600C37BD465DF829
:10074000047B7047C8850840CC85084080B485B0DC
:1007500000AF0346FB71494B1B78002B25D1FB7979
:10076000072B0DD0072B04DC002B0FD0032B0AD056
:1007700018E0892B10D08F2B11D0832B09D011E0DA
:10078000FF23FB7310E0D523FB730DE0B623FB734F
:100790000AE0A123FB7307E07223FB7304E042230A
:1007A000FB7301E0012363E05EE0344B1B78012B17
:1007B00007D1FB79142B01D0012359E0E523FB730A
:1007C00052E02E4B1B78022B4CD1FB79162B46D8CE
:1007D00001A252F823F000BF590820005F08200052
:1007E0005F0820005F082000530820005F082000F9
:1007F0005F0820004D0820005F0820005F082000EF
:100800005F0820005F0820005F08200047082000E4
:100810005F0820005F082000410820005F082000DA
:100820005F0820005F0820003B0820005F082000D0
:1008300035082000FF23FB7313E0C523FB7310E092
:100840009123FB730DE07223FB730AE04223FB73D9
:1008500007E02423FB7304E00023FB7301E0012382
:1008600006E001E0012303E0054AFB7B136000235F
:1008700018461437BD465DF8047B704718450020C4
:100880004086084080B483B000AF0346FB71FB791B
:10089000002B12D1144B00221A60144B1B78022B30
:1008A00003D1134B51221A7019E0104B1B78012B06
:1008B00015D10F4B45221A7011E00B4B04221A6020
:1008C0000A4B1B78022B03D1094B55221A7006E004
:1008D000064B1B78012B02D1054B4F221A700C37A7
:1008E000BD465DF8047B704710C00D4018450020E0
:1008F0001044002080B485B000AF78600B46FB70D8
:100900000E4BEE221A600E4A0D4B1B6823F00203B9
:1009100013600023FB7308E00A49FB7B7A681344E9
:100920001B780B60FB7B0133FB73FA7BFB789A42ED
:10093000F2D31437BD465DF8047B70473888084011
:10094000308808402888084080B483B000AF7860C1
:100950000B46FB7009E07B685A1C7A60074A1268F4
:10096000D2B21A70FB78013BFB70FB78002BF2D1FE
:100970000C37BD465DF8047B704700BF28880840EF
:1009800080B400AF0A4BE9221A6000BF094B1B6814
:1009900003F00203002BF9D0064A064B1B6823F034
:1009A0000203136000231846BD465DF8047B7047C0
:1009B000388808403088084080B400AF044BED22EE
:1009C0001A60034BE3221A60BD465DF8047B704752
:1009D0003888084080B400AF044BEF221A60034B04
:1009E000ED221A60BD465DF8047B704738880840E8
:1009F00080B500AF044A044B1B6823F0400313602A
:100A00009D2000F019FA80BD8C86084080B500AFAB
:100A1000044A044B1B6843F0400313609D2000F020
:100A2000C1F980BD8C86084080B483B000AF786087
:100A3000034A7B6813600C37BD465DF8047B704742
:100A40001445002080B400AF00BF054B1B6803F0C5
:100A50002203002BF9D1BD465DF8047B704700BF2F
:100A60004C86084080B500AF0F4A0F4B1B6843F01F
:100A7000040313600D4A0D4B1B6803F0040313605D
:100A80000B4B00221A600120FFF7FCFE094B1122DC
:100A90001A60094B80221A60084B10221A60084B1A
:100AA00081221A6080BD00BF00C40D4020C40D40EB
:100AB000E8400D40AC8708401C000144B087084066
:100AC0002000014480B500AF0B4B1B6803F04003CE
:100AD000002B0FD0094B1B68002B02D0074B1B6863
:100AE00098479D2000F0F2F9034A034B1B6823F05E
:100AF0004003136080BD00BF3488084014450020C7
:100B000080B582B000AF0346FB80FB88074A1360C4
:100B1000A12000F091F900F01BFA0246FB88134473
:100B2000184600F03DFA0837BD4680BD1C45002040
:100B300080B584B000AF786000F0C4F80346FB7362
:100B4000084800F0F7F9A12000F076F9064A7B6822
:100B50001360FB7B002B01D100F0A8F81037BD46D5
:100B600080BD00BF810B20002045002080B500AF74
:100B7000A12000F0ABF9A12000F014F980BD00BF66
:100B800080B500AF00F0E4F90246074B1B68134440
:100B9000184600F005FA054B1B68002B02D0034BEA
:100BA0001B68984780BD00BF1C45002020450020E1
:100BB00080B582B000AF00237B60294B00221A7001
:100BC000274B00225A70264B1A229A70244B00227F
:100BD000DA70234B234A5A60214B14229A60204B2F
:100BE0002A221A73204B42F207025A801E4B00221F
:100BF0005A711D48FFF758FC0346012B00D1FEE750
:100C0000FFF7FCFC0020FFF7A1FD40F26660FFF754
:100C100077FF1648FFF78CFFFFF7A8FF104B5B78B4
:100C2000012B17D10E4B5A687B689A4211D94BF6AB
:100C3000EF600F495C22FFF775FC0D4B1B68013319
:100C40000B4A13607B6801337B60054B03225A70AB
:100C500000E000E0E2E718460837BD4680BD00BF6F
:100C60002445002040420F0034450020750C200030
:100C70003C45002080B400AF034B01225A70BD46B2
:100C80005DF8047B704700BF24450020EFF310801F
:100C900072B670471C462346184600BFEFF310801B
:100CA00062B670471C462346184600BF80B500AFA9
:100CB000FFF7F4FF0346002B14BF01230023DBB230
:100CC000184680BD80B500AFFFF7E0FF0346002B5C
:100CD00014BF01230023DBB2184680BD80B485B069
:100CE00000AF78603960144B1B68144A934218D0E7
:100CF000114B1B68BB600023FB600CE0FB689A0093
:100D0000BB6813441B6819460C4AFB6842F8231061
:100D1000FB680133FB60FB68A22BEFD9064B074A47
:100D20001A6006497B683A6841F823201437BD46AB
:100D30005DF8047B704700BF08ED00E00040002034
:100D400080B485B000AF78600B46FB707B689B0871
:100D5000134A52F823301B68FB607B6803F00303DF
:100D6000DB001A46FF239340DB431A46FB6813401F
:100D7000FB60FB787A6802F00302D20093401A46C7
:100D8000FB681343FB607B689B08054A52F82330DD
:100D90001A46FB6813601437BD465DF8047B704744
:100DA0007410200080B483B000AF78607B68042B9F
:100DB00006D11E4A1D4B1B6843F4803313602FE09D
:100DC0007B68052B06D1194A184B1B6843F4003386
:100DD000136025E07B68062B06D1144A134B1B6871
:100DE00043F4802313601BE07B680F2B06D1104A6D
:100DF0000F4B1B6843F00203136011E07B680F2B5D
:100E00000ED97B68103B5B090A4A52F82330194619
:100E10007B68103B03F01F03012202FA03F30B600F
:100E20000C37BD465DF8047B704700BF24ED00E041
:100E300010E000E01811200080B483B000AF7860AB
:100E40007B68042B06D11E4A1D4B1B6823F480339C
:100E500013602FE07B68052B06D1194A184B1B68DD
:100E600023F40033136025E07B68062B06D1144A77
:100E7000134B1B6823F4802313601BE07B680F2B4C
:100E800006D1104A0F4B1B6823F00203136011E0D8
:100E90007B680F2B0ED97B68103B5B090A4A52F81E
:100EA000233019467B68103B03F01F03012202FA2E
:100EB00003F30B600C37BD465DF8047B704700BF41
:100EC00024ED00E010E000E02C11200080B483B09D
:100ED00000AF78607B680E2B06D1144A134B1B6859
:100EE00043F0006313601BE07B680F2B06D10F4AB1
:100EF0000E4B1B6843F00073136011E07B680F2BEF
:100F00000ED97B68103B5B09094A52F82330194619
:100F10007B68103B03F01F03012202FA03F30B600E
:100F20000C37BD465DF8047B704700BF04ED00E060
:100F30004011200080B582B000AF7860A1207968B0
:100F4000FFF7CCFEA120FFF72DFF0837BD4680BD7F
:100F500080B483B000AF0E4B1B687B600D4B1B68E9
:100F60001B027A6813437B600B4B1B681B047A6877
:100F700013437B60094B1B681B067A6813437B6035
:100F80007B6818460C37BD465DF8047B704700BF90
:100F900040500D4044500D4048500D404C500D40C5
:100FA00080B483B000AF786000BF0E4B1B6803F0C5
:100FB0000103002BF9D00C4A7B681B0E13600B4A0F
:100FC0007B681B0CDBB21360094A7B681B0ADBB22F
:100FD0001360084A7B68DBB213600C37BD465DF8CE
:100FE000047B704750500D404C500D4048500D4010
:100FF00044500D4040500D4080B500AF00F00AF85D
:10100000FEE700BF80B400AFFEE700BF80B400AFD2
:10101000FEE700BF80B582B000AF104BFF221A6020
:101020000F4B7B600F4B3B6007E03B681A1D3A603B
:101030007A68111D796012681A603B680A4A934207
:10104000F3D30A480A494FF000028842B8BF40F87B
:10105000042BFADBFFF7ACFDFEE700BFB4200D4028
:1010600054112000004000201144002014440020AE
:10107000984700200000000018ED00E01CED00E0A3
:1010800020ED00E000E400E004E400E008E400E01B
:101090000CE400E010E400E014E400E018E400E0F8
:1010A0001CE400E020E400E024E400E028E400E0A8
:1010B0002CE400E030E400E034E400E038E400E058
:1010C0003CE400E040E400E044E400E048E400E008
:1010D0004CE400E050E400E054E400E058E400E0B8
:1010E0005CE400E060E400E064E400E068E400E068
:1010F0006CE400E070E400E074E400E078E400E018
:101100007CE400E080E400E084E400E088E400E0C7
:101110008CE400E090E400E000E100E004E100E0A5
:1011200008E100E00CE100E010E100E080E100E017
:1011300084E100E088E100E08CE100E090E100E083
:1011400080E200E084E200E088E200E08CE200E07F
:0411500090E200E049
:10115400000000000000000000000000000000008B
:10116400000000000000000000000000000000007B
:10117400000000000000000000000000000000006B
:10118400000000000000000000000000000000005B
:10155400FF00000000000000000000000000000088
:01156400493D
:020000040027D3
:0CFFD400FFFFFFF3000000000000200011
:0400000500201015B2
:00000001FF
